{
  "contractName": "Calculator",
  "abi": [
    {
      "inputs": [
        {
          "name": "initial",
          "type": "uint256"
        }
      ],
      "payable": false,
      "stateMutability": "nonpayable",
      "type": "constructor"
    },
    {
      "constant": true,
      "inputs": [],
      "name": "getResult",
      "outputs": [
        {
          "name": "",
          "type": "uint256"
        }
      ],
      "payable": false,
      "stateMutability": "view",
      "type": "function"
    },
    {
      "constant": false,
      "inputs": [
        {
          "name": "num",
          "type": "uint256"
        }
      ],
      "name": "addToNumber",
      "outputs": [],
      "payable": false,
      "stateMutability": "nonpayable",
      "type": "function"
    },
    {
      "constant": false,
      "inputs": [
        {
          "name": "num",
          "type": "uint256"
        }
      ],
      "name": "subtractFromNumber",
      "outputs": [],
      "payable": false,
      "stateMutability": "nonpayable",
      "type": "function"
    },
    {
      "constant": false,
      "inputs": [
        {
          "name": "num",
          "type": "uint256"
        }
      ],
      "name": "multiplyWithNumber",
      "outputs": [],
      "payable": false,
      "stateMutability": "nonpayable",
      "type": "function"
    },
    {
      "constant": false,
      "inputs": [
        {
          "name": "num",
          "type": "uint256"
        }
      ],
      "name": "dividedByNumber",
      "outputs": [],
      "payable": false,
      "stateMutability": "nonpayable",
      "type": "function"
    }
  ],
  "bytecode": "0x608060405234801561001057600080fd5b506040516020806102118339810180604052810190808051906020019092919050505080600081905550506101c78061004a6000396000f30060806040526004361061006d576000357c0100000000000000000000000000000000000000000000000000000000900463ffffffff16806306ccd230146100725780634394e7791461009f578063a9401603146100cc578063b4679b06146100f9578063de29278914610126575b600080fd5b34801561007e57600080fd5b5061009d60048036038101908080359060200190929190505050610151565b005b3480156100ab57600080fd5b506100ca6004803603810190808035906020019092919050505061015f565b005b3480156100d857600080fd5b506100f760048036038101908080359060200190929190505050610176565b005b34801561010557600080fd5b5061012460048036038101908080359060200190929190505050610184565b005b34801561013257600080fd5b5061013b610192565b6040518082815260200191505060405180910390f35b806000540160008190555050565b8060005481151561016c57fe5b0460008190555050565b806000540360008190555050565b806000540260008190555050565b600080549050905600a165627a7a723058204385e5949e8c1931950516d7448873e152fa2f19d29d1b6386dfeac1154b68020029",
  "source": "pragma solidity ^0.4.22;\n\n\ncontract Calculator {\n  uint result;\n  constructor(uint initial) public {\n    result = initial;\n  }\n  //returms the result\n function getResult() public constant returns(uint){\n   return result;\n }\n // result = result + number\n function addToNumber(uint num) public {\n   result = result + num;\n \n\n }\n // result = result- num\n  function subtractFromNumber(uint num) public {\n    result = result - num;\n }\n\n // result = result*num\n  function multiplyWithNumber(uint num) public {\n    result = result * num;\n\n }\n   // result = result/num\n  function dividedByNumber(uint num) public {\n  result = result / num;\n }\n\n\n}\n",
  "sourcePath": "C:\\Users\\Solut\\Google Drive\\work2\\tutorials\\SOLIDITY\\calculator\\contracts\\Calculator.sol",
  "compiler": {
    "name": "solc",
    "version": "0.4.24+commit.e67f0147.Emscripten.clang"
  },
  "schemaVersion": "2.0.1",
  "updatedAt": "2018-07-12T07:57:38.840Z"
}