{
  "contractName": "Funcs",
  "abi": [
    {
      "inputs": [],
      "payable": false,
      "stateMutability": "nonpayable",
      "type": "constructor"
    },
    {
      "constant": false,
      "inputs": [
        {
          "name": "name",
          "type": "string"
        },
        {
          "name": "age",
          "type": "uint8"
        }
      ],
      "name": "setOwnerInfo",
      "outputs": [],
      "payable": false,
      "stateMutability": "nonpayable",
      "type": "function"
    },
    {
      "constant": false,
      "inputs": [],
      "name": "getOwnerName",
      "outputs": [
        {
          "name": "",
          "type": "string"
        }
      ],
      "payable": false,
      "stateMutability": "nonpayable",
      "type": "function"
    },
    {
      "constant": false,
      "inputs": [],
      "name": "getOwnerAge",
      "outputs": [
        {
          "name": "age",
          "type": "uint8"
        }
      ],
      "payable": false,
      "stateMutability": "nonpayable",
      "type": "function"
    }
  ],
  "bytecode": "0x608060405234801561001057600080fd5b5061035c806100206000396000f300608060405260043610610057576000357c0100000000000000000000000000000000000000000000000000000000900463ffffffff168063145ef6e91461005c578063badbcfe8146100ec578063d5f7c53b1461011d575b600080fd5b34801561006857600080fd5b50610071610193565b6040518080602001828103825283818151815260200191508051906020019080838360005b838110156100b1578082015181840152602081019050610096565b50505050905090810190601f1680156100de5780820380516001836020036101000a031916815260200191505b509250505060405180910390f35b3480156100f857600080fd5b50610101610235565b604051808260ff1660ff16815260200191505060405180910390f35b34801561012957600080fd5b50610191600480360381019080803590602001908201803590602001908080601f0160208091040260200160405190810160405280939291908181526020018383808284378201915050505050509192919290803560ff169060200190929190505050610255565b005b606060008054600181600116156101000203166002900480601f01602080910402602001604051908101604052809291908181526020018280546001816001161561010002031660029004801561022b5780601f106102005761010080835404028352916020019161022b565b820191906000526020600020905b81548152906001019060200180831161020e57829003601f168201915b5050505050905090565b600080600160006101000a81548160ff021916908360ff16021790555090565b816000908051906020019061026b92919061028b565b5080600160006101000a81548160ff021916908360ff1602179055505050565b828054600181600116156101000203166002900490600052602060002090601f016020900481019282601f106102cc57805160ff19168380011785556102fa565b828001600101855582156102fa579182015b828111156102f95782518255916020019190600101906102de565b5b509050610307919061030b565b5090565b61032d91905b80821115610329576000816000905550600101610311565b5090565b905600a165627a7a72305820b8e886889f3dedea650417f5faaa2a73420bff47f97391d9662fd66a07e451b60029",
  "source": "pragma solidity ^0.4.22;\n\n\ncontract Funcs {\n  string ownerName;\n    uint8 ownerAge;\n  constructor() { }\n\n  function setOwnerInfo( string name, uint8 age ){\n    ownerName = name;\n    ownerAge = age;\n  }\n\n  function getOwnerName() returns (string){\n   return ownerName;\n  }\n  function getOwnerAge() returns (uint8 age){\n   ownerAge = age;\n  }\n  }\n",
  "sourcePath": "C:\\Users\\Solut\\Google Drive\\work2\\tutorials\\SOLIDITY\\calculator\\contracts\\Funcs.sol",
  "compiler": {
    "name": "solc",
    "version": "0.4.24+commit.e67f0147.Emscripten.clang"
  },
  "schemaVersion": "2.0.1",
  "updatedAt": "2018-07-12T07:57:38.838Z"
}