{
  "contractName": "globals",
  "abi": [
    {
      "inputs": [],
      "payable": false,
      "stateMutability": "nonpayable",
      "type": "constructor"
    },
    {
      "constant": false,
      "inputs": [
        {
          "name": "distance",
          "type": "uint256"
        },
        {
          "name": "units",
          "type": "uint256"
        }
      ],
      "name": "CalculateFutureTime",
      "outputs": [
        {
          "name": "",
          "type": "uint256"
        }
      ],
      "payable": false,
      "stateMutability": "nonpayable",
      "type": "function"
    },
    {
      "constant": false,
      "inputs": [],
      "name": "getBlockInformation",
      "outputs": [
        {
          "name": "number",
          "type": "uint256"
        },
        {
          "name": "hash",
          "type": "bytes32"
        },
        {
          "name": "coinbase",
          "type": "address"
        },
        {
          "name": "difficulty",
          "type": "uint256"
        }
      ],
      "payable": false,
      "stateMutability": "nonpayable",
      "type": "function"
    }
  ],
  "bytecode": "0x608060405234801561001057600080fd5b506101c5806100206000396000f30060806040526004361061004c576000357c0100000000000000000000000000000000000000000000000000000000900463ffffffff168063d03064d114610051578063de7066f11461009c575b600080fd5b34801561005d57600080fd5b506100866004803603810190808035906020019092919080359060200190929190505050610110565b6040518082815260200191505060405180910390f35b3480156100a857600080fd5b506100b161017d565b6040518085815260200184600019166000191681526020018373ffffffffffffffffffffffffffffffffffffffff1673ffffffffffffffffffffffffffffffffffffffff16815260200182815260200194505050505060405180910390f35b600080600281111561011e57fe5b82141561013257603c830242019050610177565b6001600281111561013f57fe5b82141561015457610e10830242019050610177565b60028081111561016057fe5b8214156101765762015180830242019050610177565b5b92915050565b60008060008043935060018403409250419150449050909192935600a165627a7a72305820538e8e0a2acf94b1d1b993fee217ef4170769aef264a1f404f41bd03cb1e27010029",
  "source": "pragma solidity ^0.4.22;\n\n\ncontract globals {\n  enum TimeUnit {Minute, Hour, Day}\n\n  constructor() public {\n  }\n  function CalculateFutureTime (uint distance , uint units)  returns (uint){\n    if(units == uint(TimeUnit.Minute)){ //checks if inits is in minutes--wierd!!\n    return (now + distance *1 minutes); // convers minutes to second and adding to futer time\n    }\n    else if(units == uint(TimeUnit.Hour)){\n      return (now + distance *1 hours);\n    }\n     else if(units == uint(TimeUnit.Day)){\n      return (now + distance *1 days);\n    }\n  \n  }\n\n  function getBlockInformation() returns(uint number, bytes32 hash, address coinbase, uint difficulty){\n  number = block.number;\n  hash = block.blockhash(number -1); // -1 excludes current \n  //current block\n  coinbase = block.coinbase;\n  difficulty = block.difficulty;\n  }\n  \n}\n",
  "sourcePath": "C:\\Users\\Solut\\Google Drive\\work2\\tutorials\\SOLIDITY\\calculator\\contracts\\globals.sol",
  "compiler": {
    "name": "solc",
    "version": "0.4.24+commit.e67f0147.Emscripten.clang"
  },
  "schemaVersion": "2.0.1",
  "updatedAt": "2018-07-12T07:57:37.026Z"
}