{
  "contractName": "mappingEnums",
  "abi": [
    {
      "inputs": [],
      "payable": false,
      "stateMutability": "nonpayable",
      "type": "constructor"
    },
    {
      "constant": false,
      "inputs": [
        {
          "name": "country",
          "type": "string"
        },
        {
          "name": "capital",
          "type": "string"
        }
      ],
      "name": "addCapital",
      "outputs": [],
      "payable": false,
      "stateMutability": "nonpayable",
      "type": "function"
    },
    {
      "constant": false,
      "inputs": [
        {
          "name": "country",
          "type": "string"
        }
      ],
      "name": "getCapital",
      "outputs": [
        {
          "name": "",
          "type": "string"
        }
      ],
      "payable": false,
      "stateMutability": "nonpayable",
      "type": "function"
    },
    {
      "constant": false,
      "inputs": [
        {
          "name": "country",
          "type": "string"
        }
      ],
      "name": "removeCapital",
      "outputs": [],
      "payable": false,
      "stateMutability": "nonpayable",
      "type": "function"
    }
  ],
  "bytecode": "0x608060405234801561001057600080fd5b5061057a806100206000396000f300608060405260043610610057576000357c0100000000000000000000000000000000000000000000000000000000900463ffffffff168063418db3871461005c578063a28bbb3d1461013e578063b4f9f621146101a7575b600080fd5b34801561006857600080fd5b506100c3600480360381019080803590602001908201803590602001908080601f0160208091040260200160405190810160405280939291908181526020018383808284378201915050505050509192919290505050610256565b6040518080602001828103825283818151815260200191508051906020019080838360005b838110156101035780820151818401526020810190506100e8565b50505050905090810190601f1680156101305780820380516001836020036101000a031916815260200191505b509250505060405180910390f35b34801561014a57600080fd5b506101a5600480360381019080803590602001908201803590602001908080601f0160208091040260200160405190810160405280939291908181526020018383808284378201915050505050509192919290505050610363565b005b3480156101b357600080fd5b50610254600480360381019080803590602001908201803590602001908080601f0160208091040260200160405190810160405280939291908181526020018383808284378201915050505050509192919290803590602001908201803590602001908080601f01602080910402602001604051908101604052809392919081815260200183838082843782019150505050505091929192905050506103dd565b005b60606000826040518082805190602001908083835b602083101515610290578051825260208201915060208101905060208303925061026b565b6001836020036101000a03801982511681845116808217855250505050505090500191505090815260200160405180910390208054600181600116156101000203166002900480601f0160208091040260200160405190810160405280929190818152602001828054600181600116156101000203166002900480156103575780601f1061032c57610100808354040283529160200191610357565b820191906000526020600020905b81548152906001019060200180831161033a57829003601f168201915b50505050509050919050565b6000816040518082805190602001908083835b60208310151561039b5780518252602082019150602081019050602083039250610376565b6001836020036101000a038019825116818451168082178552505050505050905001915050908152602001604051809103902060006103da9190610461565b50565b806000836040518082805190602001908083835b60208310151561041657805182526020820191506020810190506020830392506103f1565b6001836020036101000a0380198251168184511680821785525050505050509050019150509081526020016040518091039020908051906020019061045c9291906104a9565b505050565b50805460018160011615610100020316600290046000825580601f1061048757506104a6565b601f0160209004906000526020600020908101906104a59190610529565b5b50565b828054600181600116156101000203166002900490600052602060002090601f016020900481019282601f106104ea57805160ff1916838001178555610518565b82800160010185558215610518579182015b828111156105175782518255916020019190600101906104fc565b5b5090506105259190610529565b5090565b61054b91905b8082111561054757600081600090555060010161052f565b5090565b905600a165627a7a7230582072955b445d660475cf393c7f4e846b3f8da2573a720d751543fc68f9f93f7bb70029",
  "source": "pragma solidity ^0.4.22;\n\n\ncontract mappingEnums {\n\n  mapping( string => string) capitals;\n  constructor() public {\n  }\n  function addCapital(string country, string capital){\n    //Store the capital on per country basis\n    capitals[country] = capital;\n  }\n  function getCapital(string country) returns (string){\n    return capitals[country];\n  }\n  function removeCapital (string country){\n    delete(capitals[country]); //will remove the key value pair\n  }\n}\n",
  "sourcePath": "C:\\Users\\Solut\\Google Drive\\work2\\tutorials\\SOLIDITY\\calculator\\contracts\\mappingEnums.sol",
  "compiler": {
    "name": "solc",
    "version": "0.4.24+commit.e67f0147.Emscripten.clang"
  },
  "schemaVersion": "2.0.1",
  "updatedAt": "2018-07-12T07:57:37.026Z"
}